:020000040800F2
:10000000001000204D1B00081117000813170008EE
:1000100000000000000000000000000000000000E0
:10002000000000000000000000000000151700089C
:100030000000000000000000171700081917000852
:100040009D1B0008000000009D1B00089D1B000870
:100050009D1B00089D1B0008751A0008BD1A0008AA
:10006000000000001D1700089D1B00089D1B0008D4
:100070009D1B00089D1B00089D1B00080000000040
:100080009D1B000800000000000000009D1B0008F0
:10009000000000003D1700089D1B00089D1B000884
:1000A000000000009D1B0008000000009D1B0008D0
:1000B0000000000000000000000000000000000040
:1000C00010B5064C2378002B07D1054B002B02D02E
:1000D000044800E000BF0123237010BD040000208D
:1000E000000000007C210008044B10B5002B03D059
:1000F0000349044800E000BF10BDC04600000000F6
:10010000080000207C210008002243088B4274D3A1
:1001100003098B425FD3030A8B4244D3030B8B4208
:1001200028D3030C8B420DD3FF22090212BA030C11
:100130008B4202D31212090265D0030B8B4219D3F2
:1001400000E0090AC30B8B4201D3CB03C01A524112
:10015000830B8B4201D38B03C01A5241430B8B425A
:1001600001D34B03C01A5241030B8B4201D30B0343
:10017000C01A5241C30A8B4201D3CB02C01A52416A
:10018000830A8B4201D38B02C01A5241430A8B422D
:1001900001D34B02C01A5241030A8B4201D30B0216
:1001A000C01A5241CDD2C3098B4201D3CB01C01A30
:1001B000524183098B4201D38B01C01A524143093A
:1001C0008B4201D34B01C01A524103098B4201D328
:1001D0000B01C01A5241C3088B4201D3CB00C01A95
:1001E000524183088B4201D38B00C01A524143080D
:1001F0008B4201D34B00C01A5241411A00D2014632
:10020000524110467047FFE701B5002000F006F8A4
:1002100002BDC0460029F7D076E770477047C04658
:1002200082B00A4A5169012319435161526913404E
:100230000193019B064BC22189005A580548024090
:100240005A50802292001A6002B07047001002409B
:1002500000E100E0FF00FFFFF0B5C64600B58CB03E
:100260000AAD08220021280001F07FFF182200219A
:1002700004A801F07AFF444B59698020C003014370
:1002800059615A6902400392039A59698020800299
:10029000014359615A6902400292029A5A698021C7
:1002A000C9020A435A615B690B400193019B902488
:1002B000E4050823A3620833A3624026A6624E33F6
:1002C00004930127059704A9200001F0FFFC2F4BA0
:1002D00099682F48014099601969F022914319618A
:1002E0001A6902401A61E3683022934320210B43CC
:1002F000E360E068274B1840802109030143E16077
:10030000E06825498C460840802189030143E1606B
:1003100021689143216022681A4022602368624666
:100320001340236004230A932F71002398466B71B6
:100330000224AC71280001F065FC80239B000A9325
:100340002F7143466B71AC71280001F05BFC802378
:10035000DB000A932F7143466B71AC71280001F0EA
:1003600051FC0E4BC12189005A580D4802405A5089
:100370001E605A581202120A5A5080221A600CB09B
:1003800080BCB846F0BDC0460010024000000140ED
:10039000FFF0FFFFFFFFF3FFFFFFCFFF00E100E0F3
:1003A000FFFF00FFF0B593B0102200210EA801F06E
:1003B000DCFE1422002109A801F0D7FE182200213A
:1003C00003A801F0D2FE384B9969802080000143D8
:1003D00099619A6902400292029A5A6980218902BF
:1003E0000A435A615B690B400193019B0126039606
:1003F000032304937138FF3803A9C00501F066FC9C
:100400002A4B1A682A490A401A601A682949114079
:10041000802292010A431A601A6820218A430A4303
:100420001A601A6820318A431A601A6840318A4378
:100430000A431A601A6820490A401A601A681F4F56
:100440003A401A601E4CA36A3343A36280231B0602
:100450000E9310230F930025109511950EA92000DF
:1004600001F09EFB9823DB0009930A950B950C96EF
:100470000D9509A9200001F0ADFBE3680422934328
:10048000E360636907218B4363616368934363603F
:100490006368043293436360E3681F408023DB009A
:1004A0003B43E36013B0F0BD00100240080002407F
:1004B000EFBFFFFFFFCFFFFFFFFCFFFFFFF3FFFFDB
:1004C00000240140F0B593B02822002108A801F0D3
:1004D0004CFE1822002102A801F047FE264B996924
:1004E00080204001014399619A6902400192019A7A
:1004F0005A69802189020A435A615B690B40009363
:10050000009B2023029302270397032604960024CE
:1005100007949025ED0502A9280001F0D7FB802360
:1005200002930397049605940694079402A9280061
:1005300001F0CCFB089482235B000993E023DB00ED
:100540000A930B940C9480239B000D9308250E9521
:100550000F941094FA3BFF3B1193084C08A920001C
:1005600001F00CFC636810229343636063682B43C3
:10057000636013B0F0BDC04600100240003001407F
:1005800010B586B01422002101A801F0EEFD114A39
:10059000D16902231943D161D26913400093009BB2
:1005A0000D4B03930D4C01A9200001F027FD23689A
:1005B000802213432360A36809490B40A36063684A
:1005C00070218B4350390B436360A3689343A3604E
:1005D00006B010BD00100240CF070000000400402C
:1005E000F8BFFFFF30B587B001AC14220021200016
:1005F00001F0BBFD124A91698020800201439161A4
:10060000936903400093009B0E4BC52189005A5803
:100610000D4802405A50802292031A603F232380E3
:1006200000230293094A03920493094D21002800F4
:1006300001F0E4FC2B68802293432B6007B030BDAF
:100640000010024000E100E0FF00FFFFE7030000B0
:100650000044014070B596B011AE14220021300064
:1006600001F083FD2022002109A801F07EFD18225F
:10067000002103A801F079FD214BD96980204000B9
:100680000143D961DA6902400292029A5A698021D3
:10069000C9020A435A615B690B400193019B022323
:1006A000039304930025089503A9164801F00EFB57
:1006B00035801295144B13931495144C310020007F
:1006C00001F09CFC2368802293432360A369783A5D
:1006D0001343A361702309936F3B0A930B952C235B
:1006E000FF330C930D9509AA0121200001F0C6FCEF
:1006F000074A136804218B43136016B070BDC046CF
:100700000010024000040048570200000020004092
:100710001820004010B5244B1A6801218A430A436F
:100720001A601A681A680F310A431A601F4A116862
:1007300080235B020B4313601C4B1B689B03FBD5A0
:100740001A4B5A681A491140E42292030A435A602C
:10075000DA6A0F218A430E390A43DA621968802265
:1007600052040A431A60114B1B689B01FBD50F4BC7
:100770005A68F0218A435A605A680E490A405A6002
:100780005A6803218A4301390A435A60074B5A6861
:100790000C231340082BF9D1074C200001F08EFCEC
:1007A000200001F0AFFC10BD00200240001002400C
:1007B000FFFFC2FFFFF8FFFF0090D003F0B5DE4659
:1007C00057464E464546E0B585B0EE4B9A69012442
:1007D00022439A619A6922400392039ADA6980213E
:1007E00049050A43DA61DB690B400293029BFFF77C
:1007F00091FFFFF731FDFFF713FDFFF7D3FDFFF783
:1008000061FEFFF7BDFEFFF725FFFFF7EBFEDE4BB6
:10081000DE4A9A60DE4ADA605A68120C1204A0219D
:1008200049000A435A601A683F39FF390A431A607F
:100830001A6822431A60D74BDA6801318A43DA60BA
:1008400000229A609A68D4491140802212060A4315
:100850009A60D04B9B68002BFBDBCE4CE3680325F2
:10086000AB432B43E3600A2001F038FCA368CA4F76
:100870003B4001263343A3600A2001F02FFCC74A06
:10088000136840210B43136000F0DEFB8023A0229D
:100890000021002000F043FC002000F071FC01204A
:1008A00000F092FBBE490B6833430B60A3683B40EA
:1008B00004273B43A360BB4B1A6832431A60BA4A11
:1008C0001068384310601468802080002043106056
:1008D0000722B648027000209862B548D862B54B2E
:1008E000202040421880B44B1D702C23FF334B63F3
:1008F000B24BB3490B80B3490A70B34A1380B34B70
:1009000094221A70B24B1E70033F3F23984608E3AF
:100910009F4AD15CAF4AD15401339BB2A02252000E
:100920009342F5D3012701E00137BFB2A12F00D9CF
:10093000BFE0A84BDB5D4345F6D37B1CA54AD35CE7
:100940004345F1D896239B009F4200D901270023FD
:1009500077229E21022000F057FC00236F229E2167
:10096000022000F051FC002367229E21022000F0AB
:100970004BFC00235F229E21022000F045FC002357
:1009800057229E21022000F03FFC00234F229E218F
:10099000022000F039FC002347229E21022000F0B3
:1009A00033FC00233E229E21022000F02DFC002378
:1009B00037229E21022000F027FC00232F229E21B7
:1009C000022000F021FC002327229E21022000F0BB
:1009D0001BFC00231F229E21022000F015FC002397
:1009E00017229E21022000F00FFC00230F229E21DF
:1009F000022000F009FC002307229E21022000F0C3
:100A000003FC754C230000229F21002000F0FCFB1A
:100A1000230015229F21002000F0F6FB23002A224C
:100A20009F21002000F0F0FB23003F229F210020A7
:100A300000F0EAFB230054229F21002000F0E4FB99
:100A4000230069229F21002000F0DEFB23007F228B
:100A50009F21002000F0D8FB23007F2200210020EE
:100A600000F0F9FB23007F2200211F2000F0F3FBA0
:100A700023007F2200213F2000F0EDFB23007F2296
:100A800000215F2000F0E7FB23007F2200217F2070
:100A900000F0E1FB23007F2200219F2000F0DBFB20
:100AA000424B1A780C2A00D9F6E093004B4AD358EF
:100AB0009F46012746E7002301933E4B1B88009386
:100AC000474B73226421012000F0BAFD00230193FB
:100AD000444B0093444B73220A21012000F0B0FDE7
:100AE000354B1A78062A00D923E193003F4AD358A0
:100AF0009F46002301932F4B1B8800933C4B73228E
:100B00006421012000F09CFDE0E700230193294BC4
:100B10001B880093374B73226421012000F090FD65
:100B2000D4E700230193234B1B880093324B73229D
:100B30006421012000F084FDC8E7002301931D4BD0
:100B40001B8800932D4B73226421012000F078FD57
:100B5000BCE700230193174B1B880093284B73229B
:100B60006421012000F06CFDB0E700230193114BDC
:100B70001B880093234B73226421012000F060FD49
:100B8000A4E7C04600100240080002404024014093
:100B90002000002000240140E8FFFF7F00300140DA
:100BA000002000400004004000040140EA0300204F
:100BB000CF07000062010020E8030020BEF7FFFF1E
:100BC00060010020EC03002064010020E903002004
:100BD000EB03002068010020108400003822000888
:100BE00094210008BEF70000302200086C220008A3
:100BF000A0210008AC210008B8210008C421000889
:100C0000D0210008DC21000800230193CA4B1B8877
:100C10000093CA4B73226421012000F011FD55E7B7
:100C200000230193C44B1B880093C54B732264219E
:100C3000012000F005FD49E700230193BE4B1B880E
:100C40000093C04B73226421012000F0F9FC3DE7C2
:100C500000230193B84B1B880093BB4B7322642184
:100C6000012000F0EDFC31E700230193B24B1B881B
:100C70000093B64B73226421012000F0E1FC25E7CC
:100C800000230193AC4B1B880093B14B732264216A
:100C9000012000F0D5FC19E700230193A64B1B8827
:100CA0000093AC4B73226421012000F0C9FC0DE7D6
:100CB000A94B1B887F229F21002000F0A5FAA74B9B
:100CC0001B7898460E2B00D9DFE09B00A44AD3582E
:100CD0009F46A14B1B8869229F21002000F094FAB7
:100CE000EDE79D4B1B8854229F21002000F08CFAD9
:100CF000E5E7994B1B883F229F21002000F084FAF2
:100D0000DDE7954B1B882A229F21002000F07CFA0A
:100D1000D5E7914B1B8815229F21002000F074FA23
:100D2000CDE78D4B1B8800229F21002000F06CFA3C
:100D3000C5E7894B1B883F229F21002000F064FA01
:100D4000BDE7884B1B88884A107877229E2100F0E7
:100D50005BFAEE2398460124CAE0824B1B88824A44
:100D600010786F229E2100F04FFADE239846F2E7BA
:100D70007C4B1B887C4A107867229E2100F044FA45
:100D8000CE239846E7E7774B1B88774A10785F2297
:100D90009E2100F039FABE239846DCE7714B1B8890
:100DA000714A107857229E2100F02EFAAE23984601
:100DB000D1E76C4B1B886C4A10784F229E2100F0C3
:100DC00023FA9E239846C6E7664B1B88664A10782E
:100DD00047229E2100F018FA8E239846BBE7614B0C
:100DE0001B88614A10783E229E2100F00DFA7E2376
:100DF0009846B0E75B4B1B885B4A107837229E21F0
:100E000000F002FA6E239846A5E7564B1B88564A17
:100E100010782F229E2100F0F7F95E2398469AE77A
:100E2000504B1B88504A107827229E2100F0ECF985
:100E30004E2398468FE74B4B1B884B4A10781F2256
:100E40009E2100F0E1F93E23984684E7454B1B883C
:100E5000454A107817229E2100F0D6F92E23984695
:100E600079E7404B1B88404A10780F229E2100F002
:100E7000CBF91E2398466EE73A4B1B883A4A107806
:100E800007229E2100F0C0F965E7364B1B88364AE1
:100E900010783F229E2100F0B7F97E2398465AE74A
:100EA0004B46E3189BB25D1CADB2E21992B2501CE6
:100EB00080B22E4EF15C735D2D4EB55C6D08325CD8
:100EC0005208924622B29346661CB4B236B25B0810
:100ED0004908002200923200584600F0E2F95346D9
:100EE0001BB229B2234A00923200584600F0D9F9C9
:100EF0009D2CD5D9002305E01D4AD15C1B4AD15455
:100F000001339BB2A02252009342F5D39023DB051C
:100F10003F3AFF3A9A62002001F0E0F8164B0022B7
:100F20001A70B946144B1B78012BFBD19023DB05BB
:100F300002229A610023F1E462010020E821000806
:100F4000F4210008002200080C22000818220008E2
:100F500024220008D021000860010020EC030020BA
:100F60008822000864010020E9030020A802002074
:100F700068010020E5AF0000EB0300209023DB05B3
:100F800010229A62074B1873064B9B689B07FBD590
:100F9000044B9B681B06FBD49023DB0510229A614F
:100FA0007047C0460030014010B59023DB05402259
:100FB0009A62FFF7E3FF10BD10B59023DB054022D6
:100FC0009A61FFF7DBFF10BD10B504009023DB052D
:100FD00010229A623620FFF7E7FF022C1BD0032C69
:100FE00023D0012C09D0164B80221A80154B2032B9
:100FF0001A800020FFF7E0FF08E0114BA0221A80C2
:10100000104B203A1A80A020FFF7D6FF9023DB0573
:1010100010229A6110BD0A4BA0221A80094B203A77
:101020001A806020FFF7C8FFF0E7054B80221A8086
:10103000044B20321A80C020FFF7BEFFE6E7C0460F
:10104000F0030020EE03002070B59024E405102585
:10105000A5610826A661052001F040F8A6620520DA
:1010600001F03CF8A661A561052001F037F8A56202
:101070001120FFF799FF142001F030F8B120FFF79D
:1010800093FF3836A6610520FFF778FF3C20FFF775
:1010900075FF3C20FFF772FFB220FFF785FFA661C6
:1010A0000520FFF76BFF3C20FFF768FF3C20FFF7B0
:1010B00065FFB320FFF778FFA6610520FFF75EFF0D
:1010C0003C20FFF75BFF3C20FFF758FF0520FFF7B0
:1010D00055FF3C20FFF752FF3C20FFF74FFFB420A5
:1010E000FFF762FF0320FFF767FF3A20FFF75CFF7F
:1010F0000520FFF761FF2020FFF756FF1320FFF7C1
:1011000053FF2620FFF750FF0120FFF755FF29204E
:10111000FFF74AFFA5610020FFF756FF70BDF0B54D
:1011200083B007000091160001932A20FFF73CFFCF
:101130009024E4054025A561380AFFF71FFFF8B2A7
:10114000FFF71CFF300AFFF719FFF0B2FFF716FF99
:101150002B20FFF729FFA561009C200AFFF70EFF57
:10116000E0B2FFF70BFF019C200AFFF707FFE0B298
:10117000FFF704FF2C20FFF717FF03B0F0BD0000BE
:1011800070B5060AC5B29024E4051023A362124B81
:101190001B88013B9BB2114A1288013A92B200218E
:1011A0000020FFF7BCFF4023A361002407E03000CC
:1011B000FFF7E4FE2800FFF7E1FE0134A4B2074B7D
:1011C0001A88054B1B8853439C42F0DB9023DB05B8
:1011D00010229A6170BDC046EE030020F00300208B
:1011E00070B514009025ED051026AE620B000200CC
:1011F000FFF795FF4023AB61200AFFF7BFFEE0B287
:10120000FFF7BCFEAE6170BDF0B5C64600B5060086
:101210000F0011001A0A9046DDB29024E405102355
:10122000A3620B003A00FFF77AFF4023A36100247A
:1012300007E04046FFF7A2FE2800FFF79FFE0134BB
:10124000A4B2BB1B9C42F4DD9023DB0510229A6103
:1012500080BCB846F0BDF0B5C64600B50E0017001C
:101260001A0A9046DDB29024E4051023A3623B00E5
:101270000200FFF754FF4023A361002407E040462B
:10128000FFF77CFE2800FFF779FE0134A4B2B81BFB
:101290008442F4DD9023DB0510229A6180BCB846BD
:1012A000F0BDF0B5DE4657464E464546E0B585B042
:1012B00005000C0001921F0000930EAB19888B46AD
:1012C00096B280B2331A9AB2904619B28C46BFB227
:1012D000A1B27B1A9AB291461BB26246002A24DD63
:1012E00001220292002B24DD012203926246002A91
:1012F00023D0002B2FD06B461B899A4642465A4377
:1013000091B212B26B469B8998464B464046434386
:101310009EB21BB250000290580003909A4243DBE9
:1013200083B299465E1A36B22DE0012252420292F1
:10133000D8E7012252420392D8E7009BA34204DD82
:101340005B463A00FFF787FF52E05B460A00390030
:10135000FFF781FF4CE0019BAB4205DD5B460A00D5
:101360003100FFF751FF43E05B460A000100300007
:10137000FFF74AFF3CE04B46029A9B1A9BB29E192C
:1013800036B247443CB2019B9D422CD0ADB2A7B2CD
:101390005A4639002800FFF723FF55442DB2002E8E
:1013A000E9DA4E4436B2EEE76B461B8999469E1B3E
:1013B00036B207E04B46039A9B1A9BB29E1936B28F
:1013C00057443DB2009B9C420DD0AFB2A4B25A46E6
:1013D00021003800FFF704FF444424B2002EE9DA6C
:1013E0004E4436B2EEE7A1B2A8B25A46FFF7F8FE75
:1013F00005B0F0BCBB46B246A946A046F0BDF8B564
:10140000CE46474680B5994608AC2688151A013560
:101410005C1A01346543ADB2370AF6B29024E40594
:10142000A046102443469C624B46FFF778FE4023BB
:1014300042469361002407E03800FFF79FFD30002B
:10144000FFF79CFD0134A4B2AC42F5D39023DB0539
:1014500010229A61C0BCB946B046F8BDF0B5DE4670
:1014600057464E464546E0B587B005000F00924608
:1014700010AA1188039111AA1088029000240A0072
:10148000090A8846D2B29146060AC2B293461A00A9
:10149000203AD2B25F2A19D8203B19009B00591874
:1014A000664BC918052204A800F056FE9023DB0500
:1014B00010229A62012D1DD09023DB0540229A61F3
:1014C00000263B0037002E0098468FE09F2B09D95D
:1014D000403B9900CB1859495918052204A800F03F
:1014E0003BFEE3E7554BA0331A6804921A7904AB2C
:1014F0001A71DBE7534607339BB27A1D92B251460D
:101500003800FFF70CFE9023DB0540229A6100258E
:101510005F461DE03000FFF731FD3800FFF72EFD7C
:101520000134A4B2042C0BD804AB1B5D2B41DB07A8
:10153000F0D54046FFF722FD4846FFF71FFDEFE7D5
:101540003000FFF71BFD3800FFF718FD0135ADB285
:10155000062D01D80024E5E700243D0007E0300017
:10156000FFF70CFD2800FFF709FD0134A4B2052C9C
:10157000F5D957E0029DAC4665460095FFF73FFF61
:101580000134A4B2042C19D83000604380B2404426
:1015900080B23100794389B2514489B2321892B293
:1015A000013A92B273189BB2013B9BB204AD2D5D20
:1015B0003D41ED07DED5039DAC46DDE730006043DD
:1015C00080B2404480B23100794389B2514489B23B
:1015D000321892B273189BB2013B9BB2013A92B29D
:1015E000029D0095FFF70BFF0137BFB2062F01D810
:1015F0000024C7E7434635003900694389B25144A6
:1016000089B26C43A2B2D21892B2AA1892B26D18E3
:10161000ABB2013B9BB2013A92B2029800904046B5
:10162000FFF7EDFE9023DB0510229A6107B0F0BCB6
:10163000BB46B246A946A046F0BDC046C42200083B
:10164000F0B5CE46474680B583B004000D001700C4
:101650001E000AAB1B8898460BAB1B8899460128D5
:101660002CD10AE0284B1B88083B9F4203DA08373D
:10167000FFB2002501E0002700253378002B3DD084
:101680000136BAB2A9B24846019040460090200007
:10169000FFF7E4FE1D4B1B88063B9D42E2DA063550
:1016A000EDB2EAE7E200A21A174B1B889B18E31879
:1016B0009F4220DAE200BF18FFB200253378002BEA
:1016C0001CD00136BAB2A9B24846019040460090FB
:1016D0002000FFF7C3FEA007001B8000001B0B4B80
:1016E0001B88181820188542DCDA6100611849004F
:1016F0006D18EDB2E2E700270025DFE703B0C0BCBC
:10170000B946B046F0BDC046EE030020F00300200D
:101710007047FEE77047704770470000054B1B6835
:101720009B0705D5034B02225A60034B013A1A70FE
:101730007047C04600000240EB03002000B5B24BEA
:101740001B69DB0700D425E1AF4B1B69DB073ED4E7
:10175000AE4B19784900C9B21970AD4B1A785200D6
:10176000D2B21A70AB4803785B00DBB203709020F2
:10177000C005006940072FD59021C9050969890571
:1017800002D40132A2490A709022D2051269520590
:1017900002D401339F4A13709C4B1B787F2B1FD0C0
:1017A0009B4B1B787F2B27D0002200219A4B1B7864
:1017B000012B4ED0022B69D0002B2AD0974B1A78E0
:1017C0000C2A00D9D6E09300954AD3589F468E4BF9
:1017D000022252421A61B7E701318C480170CBE70F
:1017E0008D4B1B78012B03D98B4B00221A70D7E746
:1017F0000133894A1370D3E7864B1B78002B04D042
:101800000022FF2B03D00021D0E70122F9E70121BC
:10181000CCE7844B202040421880834B83481880BB
:10182000834B84481880844B94201870002906D07C
:101830007A4B1B780B2B02D8013378490B70002AA6
:10184000BCD0764B1B78002BB8D0013B734A137089
:10185000B4E7744B75481880734B202040421880C1
:10186000734B74481880002906D0744B1B78052BE5
:1018700002D8013371490B70002A9FD06F4B1B783F
:10188000002B9BD0013B6D4A137097E7674B65486F
:10189000038065480380664B202040421880002961
:1018A00006D0674B1B780D2B02D8013364490B70AF
:1018B000002A83D0624B1B78002B00D17EE7013BCE
:1018C0005F4A13707AE75F4B09229A625E4ADA62D6
:1018D0005A4B1A78062A00D978E093005B4AD3580D
:1018E0009F46584B09229A62594ADA62F0E7554BF3
:1018F00009229A62574ADA62EAE7524B00229A6258
:10190000514ADA62E4E74F4B00229A62504ADA62A7
:10191000DEE74C4B00229A624E4ADA62D8E7494B26
:1019200000229A624C4ADA62D2E7464B00229A625F
:101930004A4ADA62CCE7434B00229A62484ADA62AA
:10194000C6E7404B00229A629022FF32DA62BFE77C
:101950003C4B00229A62C732DA62B9E7394B002267
:101960009A626332DA62B3E7364B00229A624F32F0
:10197000DA62ADE7334B00229A62384ADA62A7E7AF
:10198000384B01225A63384B1B88002B23D0013B74
:10199000354A138000BD334B63225A63F3E7314B62
:1019A000C7225A63EFE72F4B2C22FF325A63EAE734
:1019B0002C4B9022FF325A63E5E72A4BF422FF3288
:1019C0005A63E0E7274B294A5A63DCE7254B2C2270
:1019D000FF325A63D7E7264B1A6804210A431A607C
:1019E0001968802292000A431A6019688022D20086
:1019F0000A431A60044BDA6801218A43DA601A68E4
:101A00008A431A60C6E7C04600440140F303002041
:101A1000F4030020F5030020F2030020EA03002075
:101A2000842600086201002060010020BEF7FFFF4D
:101A30006401002000F8FFFFE9030020E803002014
:101A4000EC030020000400403F9C0000B826000882
:101A50001F4E00000F2700009F0F0000CF0700005F
:101A6000E703000000200040F603002056020000BB
:101A7000000401400E4B5B695B0703D470470C4BBD
:101A800004225A610A4B5B695B07F8D4084A136861
:101A900004218B431360074BD96801200143D960AF
:101AA0001A6802431A60044B14221A80E6E7C04603
:101AB0000004014000440140F60300201D4B5B6917
:101AC0009B0508D41B4B5B695B051DD47047194B04
:101AD000802292005A61174B5B699B05F7D4154A27
:101AE000136815490B401360144BD968012001435A
:101AF000D9601A6802431A60114B14221A80E1E778
:101B00000C4B8022D2005A610A4B5B695B05F7D40B
:101B1000084A13680B490B401360084BD968012031
:101B20000143D9601A6802431A60054BC8221A8023
:101B3000CCE7C04600040140FFFDFFFF0044014028
:101B4000F6030020FFFBFFFF704700000D488546AD
:101B50000D480E490E4A002302E0D458C450043305
:101B6000C4188C42F9D30B4A0B4C002301E01360DC
:101B70000432A242FBD3FFF7E7FF00F0C9FAFEF7F9
:101B80001DFEFEE7001000200000002004000020E1
:101B9000DC26000804000020F8030020FEE7000017
:101BA00010B58368DB0711D4C368094A13404A683B
:101BB0008C682243CC6822431343C36003699B00B3
:101BC0009B080A6813430361002010BD0120FCE755
:101BD000C73FFFFF10B58368DB070FD4C368084A0F
:101BE0001A400B684C6823438C682343CC6823431A
:101BF00009690B431343C360002010BD0120FCE7BB
:101C00003CC2FEFF10B503000079002850D01A68CE
:101C1000002A57D05879012818D0022820D000284F
:101C20000BD001209A79002A4BD0022A2CD0032A0B
:101C300034D0012A1ED0012043E023494C6894434C
:101C40004C600A681C6822430A60EBE71E4908687A
:101C5000904308604A68186802434A600020E1E740
:101C60001949086802430A604A68186802434A60D2
:101C70000020D7E7144AD1681C68A143D1601B68D3
:101C800091680B4393601CE00F4A91681C68A14364
:101C900091601B68D1680B43D36012E00A4A9168D7
:101CA0001C68214391601B68D1680B43D36008E036
:101CB000054A11681C68A1431160196853688B4379
:101CC000536010BD0020FCE700040140F0B5002483
:101CD0000AE0C26865462A400D695D432A43C26036
:101CE0004A68022A22D001340A681300E34038D03F
:101CF0000123A34016001E401A42F4D005683300A9
:101D000073435F00FF18FA439446BD434F685F4337
:101D10003D4305604A68551E012DDAD88268654644
:101D20002A408D685D432A438260D2E7FF2E0AD89D
:101D3000026A734373431D01ED1AAA434D696B4355
:101D400013430362CFE7426A330A1E005E435E43D9
:101D500073431D01ED1AAA434D696B43134343625C
:101D6000C1E74B68013B012B01D90020F0BDC968D8
:101D7000436893434A431A434260F6E710B5036849
:101D80005B0628D40368154A1A400B684C68234345
:101D9000CC6823430C6923434C6923438C69234358
:101DA000CC6923430C6A23431343036043680C4A02
:101DB0001340CA8A8C6822431343436080239B01EB
:101DC0000A6A9A4201D0002006E04B6A1B041B0CF1
:101DD0000361002000E0012010BDC0464000FFFF6D
:101DE000FBF0FFFF70B5036A012293430362036AAD
:101DF000456884697326B4430E6834430226B343AE
:101E00000E69334393434A681343114A904205D005
:101E1000104A904202D0104A904212D108229343B5
:101E20004A6992001343042293438A689200134341
:101E30000A4A2A408D692A43094D2A40CD696D001E
:101E4000154345608461CA6842630362002070BD27
:101E5000002C01400044014000480140FFFEFFFF0C
:101E6000FFFDFFFF70B5036A1026B3430362036AE8
:101E700044688269184D2A400D682D022A432025A6
:101E8000AB430D692D012B43B3434D682D012B430B
:101E9000124DA84205D0124DA84202D0114DA842C1
:101EA00013D18025AB434D69AD012B434025AB4396
:101EB0008D68AD012B430C4D2C408D69AD002C433A
:101EC0000A4D2C40CD69ED002C4344608261CA6804
:101ED00082630362002070BDFF8CFFFF002C014075
:101EE0000044014000480140FFFBFFFFFFF7FFFFF8
:101EF00070B5026A1B4E32400262036A4468C269CE
:101F00007325AA430D682A43174D2B400D692D02F6
:101F10002B4333404D682D022B43144DA84205D06E
:101F2000134DA84202D0134DA84213D1124D2B409D
:101F30004D69AD022B43114D2B408D68AD022B43F3
:101F40000F4D2C408D692D012C430E4D2C40CD6939
:101F50006D012C434460C261CA68C2630362002001
:101F600070BDC046FFFEFFFFFFFDFFFF002C0140DC
:101F70000044014000480140FFF7FFFFFFFBFFFF67
:101F8000FFEFFFFFFFDFFFFF70B5026A144E324024
:101F90000262036A4568C269124C22400C6824023E
:101FA0002243114C23400C692403234333404C68E3
:101FB000240323430D4CA04205D00D4CA04202D077
:101FC0000C4CA04204D10C4C2C408D69AD01254332
:101FD0004560C261CA6802640362002070BDC046E9
:101FE000FFEFFFFFFF8CFFFFFFDFFFFF002C014033
:101FF0000044014000480140FFBFFFFF0368194A49
:10200000904202D0184A904203D1702293434A680A
:102010001343144A90420BD0134A904208D0134AFB
:10202000904205D0124A904202D0124A904203D107
:10203000114A1340CA68134303608B68C3620B885C
:102040008362084B984205D0094B984202D0094B55
:10205000984201D10B7C036343690122134343611E
:1020600000207047002C0140000400400020004088
:102070000044014000480140FFFCFFFF10B50B0089
:10208000110080225200934215D008D8012B0FD0A6
:10209000102B02D1FFF7E6FE09E0012007E08022C5
:1020A0005201934202D1FFF76FFF00E0012010BD03
:1020B000FFF798FEFBE7FFF71BFFF8E710B5FA21E3
:1020C0008900FEF721F80138034B586000229A601E
:1020D00005321A6010BDC04610E000E082B0084B27
:1020E0001B680193019B431C00D00130002805D0E0
:1020F000034B1B68DB03F9D50138F7E702B07047E3
:1021000010E000E0014B18607047C046000000205E
:1021100070B500260C4D0D4C641BA410A64209D1CD
:10212000002600F02BF80A4D0A4C641BA410A642AE
:1021300005D170BDB300EB5898470136EEE7B30008
:10214000EB5898470136F2E7D4260008D426000859
:10215000D4260008D8260008002310B59A4200D1E2
:1021600010BDCC5CC4540133F8E7030082189342DD
:1021700000D1704719700133F9E70000F8B5C04687
:10218000F8BC08BC9E467047F8B5C046F8BC08BC11
:042190009E467047B0
:102194003230306D732F6469762000003130306D39
:1021A400732F64697620000035306D732F6469766F
:1021B4002020000032306D732F6469762000000007
:1021C40031306D732F64697620000000356D732FF4
:1021D4006469762020000000326D732F64697620D4
:1021E40020000000316D732F646976202000000008
:1021F40035303075732F64697600000032303075E5
:10220400732F64697600000031303075732F646970
:1022140076000000353075732F6469762000000065
:10222400343075732F6469762000000031562F64B2
:1022340069760000B60A0008F20A00080A0B0008D2
:10224400220B00083A0B0008520B00086A0B000826
:10225400080C0008200C0008380C0008500C00087A
:10226400680C0008800C0008B00C0008D20C0008B0
:10227400E20C0008F20C0008020D0008120D000820
:10228400220D0008420D00085A0D0008700D0008C8
:10229400860D00089C0D0008B20D0008C80D00084A
:1022A400DE0D0008F40D00080A0E0008200E0008D8
:1022B400360E00084C0E0008620E0008780E000866
:1022C400000000000000005F000000070007001489
:1022D4007F147F14242A7F2A122313086462364948
:1022E4005522500005030000001C22410000412239
:1022F4001C00082A1C2A0808083E08080050300060
:1023040000080808080800606000002010080402A3
:102314003E5149453E00427F4000426151494621B9
:1023240041454B311814127F1027454545393C4A25
:102334004949300171090503364949493606494975
:10234400291E00363600000056360000000814220C
:1023540041141414141441221408000201510906F2
:10236400324979413E7E1111117E7F494949363EF9
:10237400414141227F4141221C7F494949417F0912
:102384000901013E414151327F0808087F00417F25
:1023940041002040413F017F081422417F404040DA
:1023A400407F0204027F7F0408107F3E4141413E8A
:1023B4007F090909063E4151215E7F0919294646D4
:1023C4004949493101017F01013F4040403F1F20FD
:1023D40040201F7F2018207F6314081463030478AF
:1023E4000403615149454300007F41410204081040
:1023F4002041417F0000040201020440404040406B
:10240400000102040020545454787F48444438386E
:1024140044444420384444487F3854545418087E73
:10242400090102081454543C7F0804047800447DD4
:1024340040002040443D00007F10284400417F407C
:10244400007C041804787C08040478384444443834
:102454007C14141408081414187C7C080404084818
:1024640054545420043F4440203C4040207C1C20D1
:1024740040201C3C4030403C44281028440C505020
:10248400503C4464544C44000836410000007F0032
:102494000000413608000804081008FFFFFFFFFF92
:1024A40000000000002344390403244932090420B5
:1024B400413F01005D2222225D7E020202010000F2
:1024C400770000004A5529007C555445003E7F633F
:1024D400773E3E49494122081400081408080808B8
:1024E4001800000000003E5F4B553E00457C45004F
:1024F40000040A040044445F444400417F41000056
:10250400447D40007C040402007C10103C40060F13
:102514007F017F000008000038555455187C1020B6
:102524007C0C3854544428140800140820403D00FE
:10253400006649494933085454542000457C4100FD
:102544007C1211127C7F494949317F494949367FC0
:1025540001010101603F213F607F494949417708FA
:102564007F087722414949367F1008047F7E10098D
:10257400047E7F08142241403E01017F7F020C0249
:102584007F7F0808087F3E4141413E7F0101017F72
:102594007F090909063E4141412201017F010107EA
:1025A4004848483F0E117F110E63140814633F20FE
:1025B400203F60070808087F7F407E407F3F203F20
:1025C400207F017F4848307F4830007F007F4848A3
:1025D40030224149493E7F083E413E462919097F40
:1025E40020545454783C4A4A4A317C545428007C40
:1025F40004040C00603C243C6038545454186C109F
:102604007C106C00445454287C2010087C7C2112DB
:10261400097C7C10284400403804047C7C081008A1
:102624007C7C1010107C38444444387C0404047CC2
:102634007C14141408384444440004047C04040C3A
:102644005050503C08147C140844281028443C2062
:10265400203C600C1010107C7C407C407C3C203C76
:10266400207C047C5050207C5020007C007C505006
:102674002028445454387C10384438485434147C4A
:10268400C6180008E2180008EE180008FA18000836
:1026940006190008121900081E1900082A19000852
:1026A4003619000842190008501900085C1900087E
:1026B4006819000880190008961900089E19000876
:1026C400A6190008B0190008BA190008C4190008AE
:0426D400E900000811
:0426D800C100000835
:0426DC0000127A006E
:0400000508001B4D87
:00000001FF
